{
  "contractName": "Campaign",
  "abi": [
    {
      "constant": true,
      "inputs": [],
      "name": "manager",
      "outputs": [
        {
          "name": "",
          "type": "address"
        }
      ],
      "payable": false,
      "stateMutability": "view",
      "type": "function"
    },
    {
      "constant": true,
      "inputs": [
        {
          "name": "",
          "type": "uint256"
        }
      ],
      "name": "requests",
      "outputs": [
        {
          "name": "description",
          "type": "string"
        },
        {
          "name": "value",
          "type": "uint256"
        },
        {
          "name": "recipient",
          "type": "address"
        },
        {
          "name": "complete",
          "type": "bool"
        },
        {
          "name": "approvalCount",
          "type": "uint256"
        }
      ],
      "payable": false,
      "stateMutability": "view",
      "type": "function"
    },
    {
      "constant": true,
      "inputs": [],
      "name": "approversCount",
      "outputs": [
        {
          "name": "",
          "type": "uint256"
        }
      ],
      "payable": false,
      "stateMutability": "view",
      "type": "function"
    },
    {
      "constant": true,
      "inputs": [],
      "name": "minimumContribute",
      "outputs": [
        {
          "name": "",
          "type": "uint256"
        }
      ],
      "payable": false,
      "stateMutability": "view",
      "type": "function"
    },
    {
      "inputs": [
        {
          "name": "minimumValue",
          "type": "uint256"
        },
        {
          "name": "creator",
          "type": "address"
        }
      ],
      "payable": false,
      "stateMutability": "nonpayable",
      "type": "constructor"
    },
    {
      "constant": false,
      "inputs": [],
      "name": "contribute",
      "outputs": [],
      "payable": true,
      "stateMutability": "payable",
      "type": "function"
    },
    {
      "constant": false,
      "inputs": [
        {
          "name": "description",
          "type": "string"
        },
        {
          "name": "value",
          "type": "uint256"
        },
        {
          "name": "recipient",
          "type": "address"
        }
      ],
      "name": "createRequest",
      "outputs": [],
      "payable": false,
      "stateMutability": "nonpayable",
      "type": "function"
    },
    {
      "constant": false,
      "inputs": [
        {
          "name": "requestIndex",
          "type": "uint256"
        }
      ],
      "name": "approveRequest",
      "outputs": [],
      "payable": false,
      "stateMutability": "nonpayable",
      "type": "function"
    },
    {
      "constant": false,
      "inputs": [
        {
          "name": "index",
          "type": "uint256"
        }
      ],
      "name": "finalizeRequest",
      "outputs": [],
      "payable": false,
      "stateMutability": "nonpayable",
      "type": "function"
    }
  ],
  "bytecode": "0x6060604052341561000f57600080fd5b604051604080610b038339810160405280805190602001909190805190602001909190505080600160006101000a81548173ffffffffffffffffffffffffffffffffffffffff021916908373ffffffffffffffffffffffffffffffffffffffff160217905550816002819055505050610a768061008d6000396000f3006060604052361561008c576000357c0100000000000000000000000000000000000000000000000000000000900463ffffffff1680630344100614610091578063481c6a75146100b457806381d12c581461010957806382fde0931461020e5780638a9cfd5514610237578063cb9d1a03146102bc578063d7bb99ba146102e5578063d7d1bbdb146102ef575b600080fd5b341561009c57600080fd5b6100b26004808035906020019091905050610312565b005b34156100bf57600080fd5b6100c7610456565b604051808273ffffffffffffffffffffffffffffffffffffffff1673ffffffffffffffffffffffffffffffffffffffff16815260200191505060405180910390f35b341561011457600080fd5b61012a600480803590602001909190505061047c565b60405180806020018681526020018573ffffffffffffffffffffffffffffffffffffffff1673ffffffffffffffffffffffffffffffffffffffff168152602001841515151581526020018381526020018281038252878181546001816001161561010002031660029004815260200191508054600181600116156101000203166002900480156101fb5780601f106101d0576101008083540402835291602001916101fb565b820191906000526020600020905b8154815290600101906020018083116101de57829003601f168201915b5050965050505050505060405180910390f35b341561021957600080fd5b6102216104ed565b6040518082815260200191505060405180910390f35b341561024257600080fd5b6102ba600480803590602001908201803590602001908080601f0160208091040260200160405190810160405280939291908181526020018383808284378201915050505050509190803590602001909190803573ffffffffffffffffffffffffffffffffffffffff169060200190919050506104f3565b005b34156102c757600080fd5b6102cf610666565b6040518082815260200191505060405180910390f35b6102ed61066c565b005b34156102fa57600080fd5b61031060048080359060200190919050506106d7565b005b6000600160009054906101000a900473ffffffffffffffffffffffffffffffffffffffff1673ffffffffffffffffffffffffffffffffffffffff163373ffffffffffffffffffffffffffffffffffffffff1614151561037057600080fd5b60008281548110151561037f57fe5b906000526020600020906005020190508060020160149054906101000a900460ff161515156103ad57600080fd5b60026004548115156103bb57fe5b0481600301541115156103cd57600080fd5b8060020160009054906101000a900473ffffffffffffffffffffffffffffffffffffffff1673ffffffffffffffffffffffffffffffffffffffff166108fc82600101549081150290604051600060405180830381858888f19350505050151561043557600080fd5b60018160020160146101000a81548160ff0219169083151502179055505050565b600160009054906101000a900473ffffffffffffffffffffffffffffffffffffffff1681565b60008181548110151561048b57fe5b906000526020600020906005020160009150905080600001908060010154908060020160009054906101000a900473ffffffffffffffffffffffffffffffffffffffff16908060020160149054906101000a900460ff16908060030154905085565b60045481565b6104fb61084f565b600160009054906101000a900473ffffffffffffffffffffffffffffffffffffffff1673ffffffffffffffffffffffffffffffffffffffff163373ffffffffffffffffffffffffffffffffffffffff1614151561055757600080fd5b60a0604051908101604052808581526020018481526020018373ffffffffffffffffffffffffffffffffffffffff16815260200160001515815260200160008152509050600080548060010182816105af919061089d565b9160005260206000209060050201600083909190915060008201518160000190805190602001906105e19291906108cf565b506020820151816001015560408201518160020160006101000a81548173ffffffffffffffffffffffffffffffffffffffff021916908373ffffffffffffffffffffffffffffffffffffffff16021790555060608201518160020160146101000a81548160ff0219169083151502179055506080820151816003015550505050505050565b60025481565b600254341015151561067d57600080fd5b6001600360003373ffffffffffffffffffffffffffffffffffffffff1673ffffffffffffffffffffffffffffffffffffffff16815260200190815260200160002060006101000a81548160ff021916908315150217905550565b600360003373ffffffffffffffffffffffffffffffffffffffff1673ffffffffffffffffffffffffffffffffffffffff16815260200190815260200160002060009054906101000a900460ff16151561072f57600080fd5b60008181548110151561073e57fe5b906000526020600020906005020160040160003373ffffffffffffffffffffffffffffffffffffffff1673ffffffffffffffffffffffffffffffffffffffff16815260200190815260200160002060009054906101000a900460ff161515156107a657600080fd5b60016000828154811015156107b757fe5b906000526020600020906005020160040160003373ffffffffffffffffffffffffffffffffffffffff1673ffffffffffffffffffffffffffffffffffffffff16815260200190815260200160002060006101000a81548160ff02191690831515021790555060008181548110151561082b57fe5b90600052602060002090600502016003016000815480929190600101919050555050565b60a06040519081016040528061086361094f565b815260200160008152602001600073ffffffffffffffffffffffffffffffffffffffff168152602001600015158152602001600081525090565b8154818355818115116108ca576005028160050283600052602060002091820191016108c99190610963565b5b505050565b828054600181600116156101000203166002900490600052602060002090601f016020900481019282601f1061091057805160ff191683800117855561093e565b8280016001018555821561093e579182015b8281111561093d578251825591602001919060010190610922565b5b50905061094b91906109dd565b5090565b602060405190810160405280600081525090565b6109da91905b808211156109d657600080820160006109829190610a02565b60018201600090556002820160006101000a81549073ffffffffffffffffffffffffffffffffffffffff02191690556002820160146101000a81549060ff0219169055600382016000905550600501610969565b5090565b90565b6109ff91905b808211156109fb5760008160009055506001016109e3565b5090565b90565b50805460018160011615610100020316600290046000825580601f10610a285750610a47565b601f016020900490600052602060002090810190610a4691906109dd565b5b505600a165627a7a723058204a7f1cd0882b500d9e96065fe02e7f3abd2a8c721eb94cdb945151a5ac6aca380029",
  "source": "pragma solidity ^0.4.17;\n\ncontract CampaignFactory {\n    address[] public deployedCampaigns;\n\n    function createCampaign(uint256 minimum) public {\n        address deploy = new Campaign(minimum, msg.sender);\n        deployedCampaigns.push(deploy);\n    }\n    function getCampaigns() public view returns (address[]){\n        return deployedCampaigns;\n    }\n}\n\n\ncontract Campaign {\n    struct Request {\n        string description;\n        uint256 value;\n        address recipient;\n        bool complete;\n        uint256 approvalCount;\n        mapping(address => bool) approvals;\n    }\n\n    Request[] public requests;\n    address public manager;\n    uint256 public minimumContribute;\n    mapping(address => bool) approvers;\n    uint256 public approversCount;\n\n    function Campaign(uint256 minimumValue, address creator) public {\n        manager = creator;\n        minimumContribute = minimumValue;\n    }\n\n    modifier retricted() {\n        require(msg.sender == manager);\n        _;\n    }\n\n    modifier requireApprover() {\n        require(approvers[msg.sender]);\n        _;\n    }\n\n    function contribute() public payable {\n        require(msg.value >= minimumContribute);\n        approvers[msg.sender] = true;\n    }\n\n    function createRequest(\n        string description,\n        uint256 value,\n        address recipient\n    ) public retricted {\n        Request memory newRequest = Request({\n        description: description,\n        value: value,\n        recipient: recipient,\n        complete: false,\n        approvalCount: 0\n        });\n        requests.push(newRequest);\n    }\n\n    function approveRequest(uint256 requestIndex) public requireApprover {\n        require(!requests[requestIndex].approvals[msg.sender]);\n        requests[requestIndex].approvals[msg.sender] = true;\n        requests[requestIndex].approvalCount++;\n    }\n\n    function finalizeRequest(uint256 index) public retricted {\n        Request storage request = requests[index];\n        require(!request.complete);\n        require(request.approvalCount > approversCount / 2);\n        request.recipient.transfer(request.value);\n        request.complete = true;\n    }\n}\n",
  "sourcePath": "/Users/doduchieu/Desktop/Project/TestPr/FirstFlutterDApp/contracts/contracts/Campaign.sol",
  "compiler": {
    "name": "solc",
    "version": "0.4.17+commit.bdeb9e52.Emscripten.clang"
  },
  "schemaVersion": "3.4.3",
  "updatedAt": "2022-07-05T07:16:07.154Z",
  "devdoc": {
    "methods": {}
  },
  "userdoc": {
    "methods": {}
  }
}