{
  "contractName": "CampaignFactory",
  "abi": [
    {
      "constant": true,
      "inputs": [
        {
          "name": "",
          "type": "uint256"
        }
      ],
      "name": "deployedCampaigns",
      "outputs": [
        {
          "name": "",
          "type": "address"
        }
      ],
      "payable": false,
      "stateMutability": "view",
      "type": "function"
    },
    {
      "constant": false,
      "inputs": [
        {
          "name": "minimum",
          "type": "uint256"
        }
      ],
      "name": "createCampaign",
      "outputs": [],
      "payable": false,
      "stateMutability": "nonpayable",
      "type": "function"
    },
    {
      "constant": true,
      "inputs": [],
      "name": "getCampaigns",
      "outputs": [
        {
          "name": "",
          "type": "address[]"
        }
      ],
      "payable": false,
      "stateMutability": "view",
      "type": "function"
    }
  ],
  "bytecode": "0x6060604052341561000f57600080fd5b610f5e8061001e6000396000f30060606040526000357c0100000000000000000000000000000000000000000000000000000000900463ffffffff168063339d50a514610053578063a3303a75146100b6578063a6b03633146100d957600080fd5b341561005e57600080fd5b6100746004808035906020019091905050610143565b604051808273ffffffffffffffffffffffffffffffffffffffff1673ffffffffffffffffffffffffffffffffffffffff16815260200191505060405180910390f35b34156100c157600080fd5b6100d76004808035906020019091905050610182565b005b34156100e457600080fd5b6100ec61024a565b6040518080602001828103825283818151815260200191508051906020019060200280838360005b8381101561012f578082015181840152602081019050610114565b505050509050019250505060405180910390f35b60008181548110151561015257fe5b90600052602060002090016000915054906101000a900473ffffffffffffffffffffffffffffffffffffffff1681565b6000813361018e6102de565b808381526020018273ffffffffffffffffffffffffffffffffffffffff1673ffffffffffffffffffffffffffffffffffffffff16815260200192505050604051809103906000f08015156101e157600080fd5b9050600080548060010182816101f791906102ee565b9160005260206000209001600083909190916101000a81548173ffffffffffffffffffffffffffffffffffffffff021916908373ffffffffffffffffffffffffffffffffffffffff160217905550505050565b61025261031a565b60008054806020026020016040519081016040528092919081815260200182805480156102d457602002820191906000526020600020905b8160009054906101000a900473ffffffffffffffffffffffffffffffffffffffff1673ffffffffffffffffffffffffffffffffffffffff168152602001906001019080831161028a575b5050505050905090565b604051610bdf8061035483390190565b81548183558181151161031557818360005260206000209182019101610314919061032e565b5b505050565b602060405190810160405280600081525090565b61035091905b8082111561034c576000816000905550600101610334565b5090565b9056006060604052341561000f57600080fd5b604051604080610bdf8339810160405280805190602001909190805190602001909190505080600160006101000a81548173ffffffffffffffffffffffffffffffffffffffff021916908373ffffffffffffffffffffffffffffffffffffffff160217905550816002819055505050610b528061008d6000396000f30060606040523615610097576000357c0100000000000000000000000000000000000000000000000000000000900463ffffffff168063034410061461009c5780634051ddac146100bf578063481c6a751461013057806381d12c581461018557806382fde0931461028a5780638a9cfd55146102b3578063cb9d1a0314610338578063d7bb99ba14610361578063d7d1bbdb1461036b575b600080fd5b34156100a757600080fd5b6100bd600480803590602001909190505061038e565b005b34156100ca57600080fd5b6100d26104d2565b604051808681526020018581526020018481526020018381526020018273ffffffffffffffffffffffffffffffffffffffff1673ffffffffffffffffffffffffffffffffffffffff1681526020019550505050505060405180910390f35b341561013b57600080fd5b610143610532565b604051808273ffffffffffffffffffffffffffffffffffffffff1673ffffffffffffffffffffffffffffffffffffffff16815260200191505060405180910390f35b341561019057600080fd5b6101a66004808035906020019091905050610558565b60405180806020018681526020018573ffffffffffffffffffffffffffffffffffffffff1673ffffffffffffffffffffffffffffffffffffffff168152602001841515151581526020018381526020018281038252878181546001816001161561010002031660029004815260200191508054600181600116156101000203166002900480156102775780601f1061024c57610100808354040283529160200191610277565b820191906000526020600020905b81548152906001019060200180831161025a57829003601f168201915b5050965050505050505060405180910390f35b341561029557600080fd5b61029d6105c9565b6040518082815260200191505060405180910390f35b34156102be57600080fd5b610336600480803590602001908201803590602001908080601f0160208091040260200160405190810160405280939291908181526020018383808284378201915050505050509190803590602001909190803573ffffffffffffffffffffffffffffffffffffffff169060200190919050506105cf565b005b341561034357600080fd5b61034b610742565b6040518082815260200191505060405180910390f35b610369610748565b005b341561037657600080fd5b61038c60048080359060200190919050506107b3565b005b6000600160009054906101000a900473ffffffffffffffffffffffffffffffffffffffff1673ffffffffffffffffffffffffffffffffffffffff163373ffffffffffffffffffffffffffffffffffffffff161415156103ec57600080fd5b6000828154811015156103fb57fe5b906000526020600020906005020190508060020160149054906101000a900460ff1615151561042957600080fd5b600260045481151561043757fe5b04816003015411151561044957600080fd5b8060020160009054906101000a900473ffffffffffffffffffffffffffffffffffffffff1673ffffffffffffffffffffffffffffffffffffffff166108fc82600101549081150290604051600060405180830381858888f1935050505015156104b157600080fd5b60018160020160146101000a81548160ff0219169083151502179055505050565b60008060008060006002543073ffffffffffffffffffffffffffffffffffffffff1631600080549050600454600160009054906101000a900473ffffffffffffffffffffffffffffffffffffffff16945094509450945094509091929394565b600160009054906101000a900473ffffffffffffffffffffffffffffffffffffffff1681565b60008181548110151561056757fe5b906000526020600020906005020160009150905080600001908060010154908060020160009054906101000a900473ffffffffffffffffffffffffffffffffffffffff16908060020160149054906101000a900460ff16908060030154905085565b60045481565b6105d761092b565b600160009054906101000a900473ffffffffffffffffffffffffffffffffffffffff1673ffffffffffffffffffffffffffffffffffffffff163373ffffffffffffffffffffffffffffffffffffffff1614151561063357600080fd5b60a0604051908101604052808581526020018481526020018373ffffffffffffffffffffffffffffffffffffffff168152602001600015158152602001600081525090506000805480600101828161068b9190610979565b9160005260206000209060050201600083909190915060008201518160000190805190602001906106bd9291906109ab565b506020820151816001015560408201518160020160006101000a81548173ffffffffffffffffffffffffffffffffffffffff021916908373ffffffffffffffffffffffffffffffffffffffff16021790555060608201518160020160146101000a81548160ff0219169083151502179055506080820151816003015550505050505050565b60025481565b600254341015151561075957600080fd5b6001600360003373ffffffffffffffffffffffffffffffffffffffff1673ffffffffffffffffffffffffffffffffffffffff16815260200190815260200160002060006101000a81548160ff021916908315150217905550565b600360003373ffffffffffffffffffffffffffffffffffffffff1673ffffffffffffffffffffffffffffffffffffffff16815260200190815260200160002060009054906101000a900460ff16151561080b57600080fd5b60008181548110151561081a57fe5b906000526020600020906005020160040160003373ffffffffffffffffffffffffffffffffffffffff1673ffffffffffffffffffffffffffffffffffffffff16815260200190815260200160002060009054906101000a900460ff1615151561088257600080fd5b600160008281548110151561089357fe5b906000526020600020906005020160040160003373ffffffffffffffffffffffffffffffffffffffff1673ffffffffffffffffffffffffffffffffffffffff16815260200190815260200160002060006101000a81548160ff02191690831515021790555060008181548110151561090757fe5b90600052602060002090600502016003016000815480929190600101919050555050565b60a06040519081016040528061093f610a2b565b815260200160008152602001600073ffffffffffffffffffffffffffffffffffffffff168152602001600015158152602001600081525090565b8154818355818115116109a6576005028160050283600052602060002091820191016109a59190610a3f565b5b505050565b828054600181600116156101000203166002900490600052602060002090601f016020900481019282601f106109ec57805160ff1916838001178555610a1a565b82800160010185558215610a1a579182015b82811115610a195782518255916020019190600101906109fe565b5b509050610a279190610ab9565b5090565b602060405190810160405280600081525090565b610ab691905b80821115610ab25760008082016000610a5e9190610ade565b60018201600090556002820160006101000a81549073ffffffffffffffffffffffffffffffffffffffff02191690556002820160146101000a81549060ff0219169055600382016000905550600501610a45565b5090565b90565b610adb91905b80821115610ad7576000816000905550600101610abf565b5090565b90565b50805460018160011615610100020316600290046000825580601f10610b045750610b23565b601f016020900490600052602060002090810190610b229190610ab9565b5b505600a165627a7a72305820de96c0278948557e27e96528f3e44abe7ef810bd6a273542b101c76f90cd80bf0029a165627a7a7230582005ec0a57b9b0644976157ba5617b29d54899f499f48eff48038d7917440c6b6a0029",
  "source": "pragma solidity ^0.4.17;\n\ncontract CampaignFactory {\n    address[] public deployedCampaigns;\n\n    function createCampaign(uint256 minimum) public {\n        address deploy = new Campaign(minimum, msg.sender);\n        deployedCampaigns.push(deploy);\n    }\n\n    function getCampaigns() public view returns (address[]){\n        return deployedCampaigns;\n    }\n}\n\n\ncontract Campaign {\n    struct Request {\n        string description;\n        uint256 value;\n        address recipient;\n        bool complete;\n        uint256 approvalCount;\n        mapping(address => bool) approvals;\n    }\n\n    Request[] public requests;\n    address public manager;\n    uint256 public minimumContribute;\n    mapping(address => bool) approvers;\n    uint256 public approversCount;\n\n    function Campaign(uint256 minimumValue, address creator) public {\n        manager = creator;\n        minimumContribute = minimumValue;\n    }\n\n    modifier retricted() {\n        require(msg.sender == manager);\n        _;\n    }\n\n    modifier requireApprover() {\n        require(approvers[msg.sender]);\n        _;\n    }\n\n    function contribute() public payable {\n        require(msg.value >= minimumContribute);\n        approvers[msg.sender] = true;\n    }\n\n    function createRequest(\n        string description,\n        uint256 value,\n        address recipient\n    ) public retricted {\n        Request memory newRequest = Request({\n        description : description,\n        value : value,\n        recipient : recipient,\n        complete : false,\n        approvalCount : 0\n        });\n        requests.push(newRequest);\n    }\n\n    function approveRequest(uint256 requestIndex) public requireApprover {\n        require(!requests[requestIndex].approvals[msg.sender]);\n        requests[requestIndex].approvals[msg.sender] = true;\n        requests[requestIndex].approvalCount++;\n    }\n\n    function finalizeRequest(uint256 index) public retricted {\n        Request storage request = requests[index];\n        require(!request.complete);\n        require(request.approvalCount > approversCount / 2);\n        request.recipient.transfer(request.value);\n        request.complete = true;\n    }\n\n    function getSummary() public view returns (\n        uint,\n        uint,\n        uint,\n        uint,\n        address\n    ){\n        return (\n        minimumContribute,\n        this.balance,\n        requests.length,\n        approversCount,\n        manager\n        );\n    }\n}\n",
  "sourcePath": "/Users/doduchieu/Desktop/Project/TestPr/FirstFlutterDApp/contracts/contracts/Campaign.sol",
  "compiler": {
    "name": "solc",
    "version": "0.4.17+commit.bdeb9e52.Emscripten.clang"
  },
  "schemaVersion": "3.4.3",
  "updatedAt": "2022-07-11T09:06:21.651Z",
  "devdoc": {
    "methods": {}
  },
  "userdoc": {
    "methods": {}
  }
}